S01C000041746D6567613136382053657269616C54656D702E7372656304
S11300000C9434000C9449000C9449000C9449005D
S11300100C9449000C9449000C9449000C94490038
S11300200C9449000C9449000C9449000C94490028
S11300300C9449000C9449000C9449000C94490018
S11300400C9449000C9449000C9449000C94490008
S11300500C9449000C9449000C9449000C944900F8
S11300600C9449000C94490011241FBECFEFD4E036
S1130070DEBFCDBF11E0A0E0B1E0EEEDF4E002C0E0
S113008005900D92AA31B107D9F70E944B000C9448
S11300906D020C940000CF93DF93CDB7DEB7C65644
S11300A0D1090FB6F894DEBF0FBECDBF87E690E04E
S11300B00E94E401209A219AA6961FAEA697A796BD
S11300C01FAEA79705E010E0FF24F394BE016A5920
S11300D07F4FCE018B599F4F0E94E1018E5F82308A
S11300E008F464C0A6968FADA6974AE0BE016F5F80
S11300F07F4F992787FD90950E943802A6968FAD71
S1130100A697992787FD90959C01220F331F220FF4
S1130110331F220F331F820F931FB8010E94100256
S1130120CB014AE0BE016F5F7F4F80960E94380288
S113013080E091E00E94EF01CE0101960E94EF0160
S11301408DE091E00E94EF01A7968FADA7974AE05A
S1130150BE016F5F7F4F992787FD90950E943802FB
S113016080E191E00E94EF01CE0101960E94EF012F
S11301708DE091E00E94EF01A6968FADA697992796
S113018087FD90959C01220F331F220F331F220FEE
S1130190331F820F931FB8010E941002605E7F4FCD
S11301A06B35710514F0299801C0299A2FEF81EE5F
S11301B094E0215080409040E1F700C0000085B1F8
S11301C08F2585B983CFAF92BF92CF92DF92EF9202
S11301D0FF920F931F93CF93DF9300D000D01F9211
S11301E0CDB7DEB7FE01319625E0DF011D922A95D9
S11301F0E9F7389A409AEFEFF9EF3197F1F700C039
S11302000000AFEFB9EF1197F1F700C00000EFEF76
S1130210F9EF3197F1F700C00000AFEFB9EF119794
S1130220F1F700C00000EFEFF9EF3197F1F700C0EC
S11302300000AFEFB9EF1197F1F700C00000EFE74E
S1130240FEE33197F1F700C000004098FFEF20EE85
S113025030E0F15020403040E1F700C00000409A07
S1130260389845ED4A95F1F70000309991C0A5ED15
S1130270AA95F1F70000B5EDBA95F1F7000026B1A3
S11302802223E9F3309B86C0E5EDEA95F1F70000FF
S1130290F5EDFA95F1F70000DE0111968E010A5F83
S11302A01F4F0F2EF7E0AF2EF02DB12CC12CE1E043
S11302B0F0E00F2EF9ECEF2EF02DF12C29C0215097
S11302C031092115310519F467C02E2D3F2D309BBE
S11302D0F6CF20EA2A95F1F7309B08C09F01042E3F
S11302E002C0220F331F0A94E2F7D22A2E2D3F2D8B
S11302F006C0215031092115310509F44FC0309948
S1130300F8CF4150510908F7DD92A017B10721F049
S11303104A2D5B2DDC2CD9CF389A409AAFEFB9EF38
S11303201197F1F700C00000EFEFF9EF3197F1F703
S113033000C00000AFEFB9EF1197F1F700C0000063
S1130340EFEFF9EF3197F1F700C00000AFEFB9EF2D
S11303501197F1F700C00000EFEFF9EF3197F1F7D3
S113036000C00000AFE7BEE31197F1F700C0000042
S113037029813B815A81520F530F4C81540F4D8177
S113038054130EC0FC013083DB012C9380E009C0C0
S11303908FEF07C08EEF05C08FEF03C08FEF01C052
S11303A08FEF0F900F900F900F900F90DF91CF91E0
S11303B01F910F91FF90EF90DF90CF90BF90AF907F
S11303C008950E94E30008959093C5008093C400AB
S11303D088E18093C1008EE08093C2000895CF939A
S11303E0DF93EC0120E030E0E0ECF0E046EC50E09C
S11303F00AC0608165FFFDCFDC016D91CD01DA019A
S11304006C932F5F3F4FDE010D900020E9F71197A9
S1130410AC1BBD0B2A173B0760F3DF91CF91089506
S113042097FB072E16F4009407D077FD09D00E949D
S1130430240207FC05D03EF4909581959F4F0895C2
S1130440709561957F4F0895AA1BBB1B51E107C0AE
S1130450AA1FBB1FA617B70710F0A61BB70B881F50
S1130460991F5A95A9F780959095BC01CD010895DF
S1130470BB274A3031F4992322F4BDE2909581954B
S11304809F4F0C944402BB27FB015527AA27880FD2
S1130490991FAA1FA41710F0A41B83955051B9F7F4
S11304A0A05DAA3308F0A95DA193009779F7B11173
S11304B0B1931192CB010C945D02DC01FC01672F16
S11304C071917723E1F7329704C07C916D93708327
S11104D06291AE17BF07C8F30895F894FFCFEA
S11304DE54656D70657261747572652C000D0A0039
S10D04EE48756D69646974792C0087
S9030000FC
